:0A08CA000808010204081020408015
:10088C00E4FDFCC3ED9FEC9E5015E4FBFA0BBB00A2
:0F089C00010AEB647D4A70F50DBD00010C80E48C
:0108AB00222A
:1008AC00900000AF8274082FF8E6F5807FE87E0395
:0E08BC0012088CA3E5826408458370E780E291
:03000000020800F3
:0C080000787FE4F6D8FD75810F020847F0
:10080C000208ACE493A3F8E493A34003F68001F24E
:10081C0008DFF48029E493A3F85407240CC8C333ED
:10082C00C4540F4420C8834004F456800146F6DFBC
:10083C00E4800B01020408102040809008CAE47E7A
:10084C00019360BCA3FF543F30E509541FFEE493B1
:10085C00A360010ECF54C025E060A840B8E493A378
:10086C00FAE493A3F8E493A3C8C582C8CAC583CAA3
:10087C00F0A3C8C582C8CAC583CADFE9DEE780BE5B
:0108D4000023
:00000001FF
