:10091400110863757272656E7420616463313234D8
:03092400313A0065
:1008E90075A0FFC297D296D295C295E5A030E706CA
:0708F900C295D29580F522A3
:100928001208E9C295C297C296D2958FA0C29522A5
:100938001208E9C295D297C296D2958FA0C2952285
:100900007F011209287F381209287F0C1209287FDD
:0409100006020928AA
:1008C100D2B4C2B1C2B230B0FDD2B1E4FFC2B10004
:1008D100D2B174192FF830B0047631800276300F1E
:0708E100BF0CEAD2B2C2B461
:0108E80022ED
:10088C00758150C2AF1209007F80120928E4FE74F2
:10089C00082EF8E6FF1209380EBE10F31208C17FBD
:1008AC00C2120928E4FE74192EF8E6FF1209380E5C
:0508BC00BE0CF380E713
:03000000020800F3
:0C080000787FE4F6D8FD758124020847DB
:10080C0002088CE493A3F8E493A34003F68001F26E
:10081C0008DFF48029E493A3F85407240CC8C333ED
:10082C00C4540F4420C8834004F456800146F6DFBC
:10083C00E4800B0102040810204080900914E47E2F
:10084C00019360BCA3FF543F30E509541FFEE493B1
:10085C00A360010ECF54C025E060A840B8E493A378
:10086C00FAE493A3F8E493A3C8C582C8CAC583CAA3
:10087C00F0A3C8C582C8CAC583CADFE9DEE780BE5B
:0109270000CF
:00000001FF
