:0A08D300080801020408102040800C
:1008B300E4FDFCC3ED9FEC9E5015E4FBFA0BBB007B
:0F08C300010AEB647D4A70F50DBD00010C80E465
:0108D2002203
:10088C00758906758CF6758AF6D28C308D09C28DF9
:10089C007F647E001208B3AF8A7E00740A2FFFEECD
:0708AC0034FFFE8F9080E491
:03000000020800F3
:0C080000787FE4F6D8FD75810F020847F0
:10080C0002088CE493A3F8E493A34003F68001F26E
:10081C0008DFF48029E493A3F85407240CC8C333ED
:10082C00C4540F4420C8834004F456800146F6DFBC
:10083C00E4800B01020408102040809008D3E47E71
:10084C00019360BCA3FF543F30E509541FFEE493B1
:10085C00A360010ECF54C025E060A840B8E493A378
:10086C00FAE493A3F8E493A3C8C582C8CAC583CAA3
:10087C00F0A3C8C582C8CAC583CADFE9DEE780BE5B
:0108DD00001A
:00000001FF
