:030000000207CB29
:0C07CB00787FE4F6D8FD75814902081221
:100A9D004552524F522121214F5554204F4620523D
:040AAD00414E47452A
:10095D00013AFF0C2E000000000000000000000016
:10096D0000011E00012D00010D00013B00012000C2
:10097D00010E00010F0004210000000004250000FD
:10098D000000042900000000040800000000010C14
:01099D000059
:100A2800E4FF120AB17F06120AB17F0C120AB17FE5
:090A380038120AB17F80020AB1F4
:0F0AB10075B01FD2B78F90E4FF0FBFC8FCC2B75C
:010AC0002213
:090A4100FF120AB1120A987F208D
:0F0A4A0075B03FD2B78F90E4FF0FBFC8FCC2B7A3
:010A5900227A
:100A8800FF120AB17410253DF8E62430FF120A4A15
:040A98007FC8DFFE36
:010A9C002237
:10099F00783E7C007D007BFF7A0A799D7E007F0880
:1009AF00120521E4FEEE24C8FF120AB1743E2EF8A0
:0809BF00E6120A940EBE08EDD9
:0109C700220D
:1009C800783E7C007D007BFF7A0A79A57E007F0C4B
:1009D800120521E4FEEE24C4FF120AB1743E2EF87B
:0809E800E6120A940EBE0CEDAC
:0109F00022E4
:020A0E00AB0734
:100A10007F017E00EB600A7C007D0A1205471B8087
:070A2000F3EE3395E0FDFC4D
:010A270022AC
:100A5A00120A281208578F1F120A98E51EB401F3CA
:070A6A00AF1F12068780ECAC
:10085700E4FEFD7580F0E580F454F06052120A98CA
:10086700E580F454F06048751E017580FEE580F45C
:10087700540F603BE580F454F0602BE580F454F0AE
:1008870024E0601024E0601024C060102470700E13
:10089700E4FD800A7D0180067D0280027D03EE254E
:1008A700E025E02DFF22E58025E0F5800E80BEE4FF
:0408B700F51EAF1F5C
:0108BB00221A
:100687008F3CE50CB4010CE53C64026006120913CB
:10069700E4F50CE53CB4100040030207CA9006AB32
:1006A700F82828730206DB0206DE0206ED02070BB6
:1006B70002071802072702073602074502075502F5
:1006C700076302077102077F02078F02079D020770
:1006D700AB0207B90209131209F1742E253AF8E49F
:1006E700F67F300207C71209F17F3D120A4A740AE2
:1006F700250DF50D853A0F120003120A711208BC79
:10070700750C01221209F1050D853A0E7F2B0207A0
:10071700C71209F1742E253AF876017F310207C70F
:100727001209F1742E253AF876027F320207C712B2
:1007370009F1742E253AF876037F330207C71209A9
:10074700F17405250DF50D853A0E7F2D807212097E
:10075700F1742E253AF876047F3480641209F17417
:100767002E253AF876057F3580561209F1742E2525
:100777003AF876067F3680481209F17419250DF587
:100787000D853A0E7F2A80381209F1742E253AF822
:1007970076077F37802A1209F1742E253AF87608F2
:1007A7007F38801C1209F1742E253AF876097F39B3
:1007B700800E1209F1747D250DF50D853A0E7F2FF8
:0407C700120A4A22A6
:10000300E50E600F2401FFE433FEE50FB50707E4B7
:10001300B506030201A6E4F53DE53DC3950E504048
:10002300E50E14C3953DFF120A0E8F0B8E0A8D0940
:100033008C08742E253DF8E6FFE4FCFDFEAB0BAA0D
:100043000AA909A808120559E5242FF524E5233E3A
:10005300F523E5223DF522E5213CF521053D80B957
:10006300E50E04F53DE53DC3950F5040E50F14C380
:10007300953DFF120A0E8F0B8E0A8D098C08742E84
:10008300253DF8E6FFE4FCFDFEAB0BAA0AA909A88F
:1000930008120559E5282FF528E5273EF527E5261B
:1000A3003DF526E5253CF525053D80B9E47F507EE9
:1000B300C3FDFCAB24AA23A922A821D312067650A0
:1000C30014E47F507EC3FDFCAB28AA27A926A825EC
:1000D3001206764006752D020201A9E50D24F16092
:1000E3002D24EC7003020169249C70030201862411
:1000F3007C60030201A6E5242528F52CE52335279A
:10010300F52BE5223526F52AE52135258054AF2840
:10011300AE27AD26AC25AB24AA23A922A821C3125E
:100123000676502785240B85230A85220985210815
:10013300852824852723852622852521850B288547
:100143000A27850926850825753B01C3E5249528DB
:10015300F52CE5239527F52BE5229526F52AE521B0
:100163009525F5298038AF28AE27AD26AC25AB24DD
:10017300AA23A922A8211205598F2C8E2B8D2A8CF4
:1001830029801BAB28AA27A926A825AF24AE23AD17
:1001930022AC211205E48F2C8E2B8D2A8C29E4F5B9
:1001A3002D8003752D01E52D600302035DFB7ACAE3
:1001B300799A783BAF2CAE2BAD2AAC291205E48F8C
:1001C300107B007AE179F57805AF2CAE2BAD2AAC24
:1001D300291205E4E51075F00AA4FEC3EF9EF5119C
:1001E3007B807A9679987800AF2CAE2BAD2AAC2918
:1001F3001205E4E51075F064A4FEC3EF9EFFE5115C
:1002030075F00AA4FEC3EF9EF5127B407A42790F84
:100213007800AF2CAE2BAD2AAC291205E4E510759E
:10022300F0E8A4FEC3EF9EFFE51175F064A4FEC3DE
:10023300EF9EFFE51275F00AA4FEC3EF9EF5137B54
:10024300A07A8679017800AF2CAE2BAD2AAC2912A7
:1002530005E4E510C454F0FEC3EF9EFFE51175F00D
:10026300E8A4FEC3EF9EFFE51275F064A4FEC3EF9E
:100273009EFFE51375F00AA4FEC3EF9EF514AF10BD
:10028300E4FCFDFE7BA07A867901F8120559C007CC
:10029300E47B107A27F9F8AF2CAE2BAD2AAC2912E8
:1002A30005E4AE07D007C3EE9FFFE511C454F0FE8B
:1002B300C3EF9EFFE51275F0E8A4FEC3EF9EFFE5D2
:1002C3001375F064A4FEC3EF9EFFE51475F00AA452
:1002D300FEC3EF9EF515E47B107A27F9F8AF2CAE39
:1002E3002BAD2AAC291205E4AC00AD01AE02AF037D
:1002F300E47BE87A03F9F81205E48F16E47BE87AE5
:1003030003F9F8AF2CAE2BAD2AAC291205E4AC00EF
:10031300AD01AE02AF03E47B64FAF9F81205E48F92
:1003230017E47B64FAF9F8AF2CAE2BAD2AAC291293
:1003330005E4AC00AD01AE02AF03E47B0AFAF9F8C1
:100343001205E48F18E47B0AFAF9F8AF2CAE2BAD53
:100353002AAC291205E4AF038F19E50D6487600306
:10036300020450751AFEAB28AA27A926A825AF2494
:10037300AE23AD22AC211205E4AC00AD01AE02AF59
:1003830003E47B0AFAF9F8120559AB28AA27A92630
:10039300A8251205E48F1BAB28AA27A926A825AFF9
:1003A30024AE23AD22AC211205E4AC00AD01AE02B4
:1003B300AF03E47B0AFAF9F8120559AB28AA27A977
:1003C30026A8251205E4AC00AD01AE02AF03E47B21
:1003D3000AFAF9F8120559AB28AA27A926A8251263
:1003E30005E48F1CAB28AA27A926A825AF24AE2392
:1003F300AD22AC211205E4AC00AD01AE02AF03E4C3
:100403007B0AFAF9F8120559AB28AA27A926A825C9
:100413001205E4AC00AD01AE02AF03E47B0AFAF9C6
:10042300F8120559AB28AA27A926A8251205E4AC7A
:1004330000AD01AE02AF03E47B0AFAF9F8120559E5
:0D044300AB28AA27A926A8251205E48F1DC5
:010450002289
:100A7100E4FF74102FF8E6700BEFD394085005765D
:060A8100F00F80EE8F2053
:010A8700224C
:1008BC00E52D7042E50D64877013F53DE53D24C2CE
:1008CC00120A88053DE53DD3940D40F022E4F53D38
:1008DC00E53D24C6120A88053DE53DD3940940F058
:1008EC00E53B64017020E52024C5FF120AB17F2D81
:1008FC00120A4A020A98E52DB4010302099FE52D5C
:06090C00B402031209C849
:0109120022C2
:10091300E580F454F070F9E4FEEE2480120A410EEF
:10092300BE10F6E4FEEE24C0120A410EBE10F675A8
:100933003AFFE4F50FF50EF52DF50DF520F53BF532
:1009430028F527F526F525F524F523F522F521F5D8
:090953002CF52BF52AF529F50C11
:01095C002278
:1009F100053AE53AB41003753A40E53A2480FF120E
:0D0A01000AB1120A98E580F454F070F92251
:1007D700020A5AE493A3F8E493A34003F68001F2D4
:1007E70008DFF48029E493A3F85407240CC8C33323
:1007F700C4540F4420C8834004F456800146F6DFF2
:10080700E4800B010204081020408090095DE47E1B
:10081700019360BCA3FF543F30E509541FFEE493E6
:10082700A360010ECF54C025E060A840B8E493A3AD
:10083700FAE493A3F8E493A3C8C582C8CAC583CAD8
:10084700F0A3C8C582C8CAC583CADFE9DEE780BE90
:01099E000058
:10045100E709F608DFFA8046E709F208DFFA803E8D
:1004610088828C83E709F0A3DFFA8032E309F6087A
:10047100DFFA8078E309F208DFFA807088828C83E2
:10048100E309F0A3DFFA806489828A83E0A3F60896
:10049100DFFA805889828A83E0A3F208DFFA804C70
:1004A10080D280FA80C680D4806980F28033801047
:1004B10080A680EA809A80A880DA80E280CA8033B0
:1004C10089828A83ECFAE493A3C8C582C8CCC58328
:1004D100CCF0A3C8C582C8CCC583CCDFE9DEE780F8
:1004E1000D89828A83E493A3F608DFF9ECFAA9F077
:1004F100EDFB2289828A83ECFAE0A3C8C582C8CCCD
:10050100C583CCF0A3C8C582C8CCC583CCDFEADEE5
:10051100E880DB89828A83E493A3F208DFF980CC47
:1005210088F0EF60010E4E60C388F0ED2402B40440
:100531000050B9F582EB2402B4040050AF232345E7
:0605410082239004A17367
:10054700EF8DF0A4A8F0CF8CF0A428CE8DF0A42EC8
:02055700FE2282
:10055900E88FF0A4CC8BF0A42CFCE98EF0A42CFC41
:100569008AF0EDA42CFCEA8EF0A4CDA8F08BF0A4BF
:100579002DCC3825F0FDE98FF0A42CCD35F0FCEB1E
:100589008EF0A4FEA9F0EB8FF0A4CFC5F02ECD39E3
:0F059900FEE43CFCEAA42DCE35F0FDE43CFC2250
:1005A80075F008758200EF2FFFEE33FECD33CDCC0A
:1005B80033CCC58233C5829BED9AEC99E58298408D
:1005C8000CF582EE9BFEED9AFDEC99FC0FD5F0D66A
:1005D800E4CEFBE4CDFAE4CCF9A88222B800C1B994
:1005E8000059BA002DEC8BF084CFCECDFCE5F0CBD2
:1005F800F97818EF2FFFEE33FEED33FDEC33FCEB0B
:1006080033FB10D703994004EB99FB0FD8E5E4F9C5
:10061800FA227818EF2FFFEE33FEED33FDEC33FCB2
:10062800C933C910D7059BE99A4007EC9BFCE99AA6
:10063800F90FD8E0E4C9FAE4CCFB2275F010EF2FEB
:10064800FFEE33FEED33FDCC33CCC833C810D707EB
:100658009BEC9AE899400AED9BFDEC9AFCE899F826
:0E0668000FD5F0DAE4CDFBE4CCFAE4C8F922B9
:10067600EB9FF5F0EA9E42F0E99D42F0E89C45F0DA
:010686002251
:00000001FF
