:10087F00E4FFFEE4FDFC0DBD00010CED647D4C704A
:0C088F00F50FBF00010EBE03EABFE8E752
:01089B00223A
:03000300020800F0
:10080000C0E0C0D07590FF20B231B2B77508007556
:100810000900C3E5099401E508940050EA750A004F
:10082000750B00050BE50B7002050A647D450A7027
:10083000F20509E50970DB050880D7C2B7D0D0D032
:02084000E032A4
:10084200C288D2A8D2AF7590FFC2B720B02A7590E5
:10085200FE12087F7590FD12087F7590FB12087FCB
:100862007590F712087F7590EF12087F7590DF126E
:0D087200087F75900F12087F7590FF80CEF3
:0300000002089C57
:0C089C00787FE4F6D8FD75810B0208425D
:00000001FF
