:100927003F065B4F666D7D077F6F777C395E797118
:0309370040737991
:10090700E4FDFCC3ED9FEC9E5015E4FBFA0BBB0026
:0F091700010AEB647B4A70F50DBD00010C80E412
:0109260022AE
:08094600EF90092793F58022D0
:1008000075A0F0E5A054F064F070030208947F1422
:100810007E00120907E5A054F064F06077E5A0546B
:10082000F0FF75A00FE5A0540F4F1208E1088E7776
:1008300008827B08767D086A7E088BB7087FBB0834
:1008400073BD0867BE0888D7087CDB0870DD0864C4
:10085000DE0885E70879EB086DED0861EE00000819
:10086000917F00227F01227F02227F03227F0422C8
:100870007F05227F06227F07227F08227F09227FB1
:100880000A227F0B227F0C227F0D227F0E227F0FF8
:06089000227FFF227FFF22
:01089600223F
:10089700E4F580D2B07F081209467FF47E01120981
:1008A700077F101209467FF41209077F10120946C5
:1008B700120800EFF460F9BF07097F11120946C259
:1008C700B080077F12120946D2B07FB87E0B12099B
:0A08D700077F10120946D2B080BB63
:0300000002093AB8
:0C093A00787FE4F6D8FD7581070208976D
:1008E100D083D082F8E4937012740193700DA3A3A6
:1008F10093F8740193F5828883E4737402936860BA
:06090100EFA3A3A380DFB9
:00000001FF
